{
  "contractName": "MyERC721Token",
  "abi": [
    {
      "inputs": [],
      "stateMutability": "nonpayable",
      "type": "constructor"
    },
    {
      "anonymous": false,
      "inputs": [
        {
          "indexed": true,
          "internalType": "address",
          "name": "_owner",
          "type": "address"
        },
        {
          "indexed": true,
          "internalType": "address",
          "name": "_approved",
          "type": "address"
        },
        {
          "indexed": true,
          "internalType": "uint256",
          "name": "_tokenId",
          "type": "uint256"
        }
      ],
      "name": "Approval",
      "type": "event"
    },
    {
      "anonymous": false,
      "inputs": [
        {
          "indexed": true,
          "internalType": "address",
          "name": "_owner",
          "type": "address"
        },
        {
          "indexed": true,
          "internalType": "address",
          "name": "_operator",
          "type": "address"
        },
        {
          "indexed": false,
          "internalType": "bool",
          "name": "_approved",
          "type": "bool"
        }
      ],
      "name": "ApprovalForAll",
      "type": "event"
    },
    {
      "anonymous": false,
      "inputs": [
        {
          "indexed": true,
          "internalType": "address",
          "name": "_from",
          "type": "address"
        },
        {
          "indexed": true,
          "internalType": "address",
          "name": "_to",
          "type": "address"
        },
        {
          "indexed": true,
          "internalType": "uint256",
          "name": "_tokenId",
          "type": "uint256"
        }
      ],
      "name": "Transfer",
      "type": "event"
    },
    {
      "inputs": [],
      "name": "paused",
      "outputs": [
        {
          "internalType": "bool",
          "name": "",
          "type": "bool"
        }
      ],
      "stateMutability": "view",
      "type": "function",
      "constant": true
    },
    {
      "inputs": [
        {
          "internalType": "address",
          "name": "_from",
          "type": "address"
        },
        {
          "internalType": "address",
          "name": "_to",
          "type": "address"
        },
        {
          "internalType": "uint256",
          "name": "_tokenId",
          "type": "uint256"
        }
      ],
      "name": "safeTransferFrom",
      "outputs": [],
      "stateMutability": "nonpayable",
      "type": "function"
    },
    {
      "inputs": [
        {
          "internalType": "address",
          "name": "_from",
          "type": "address"
        },
        {
          "internalType": "address",
          "name": "_to",
          "type": "address"
        },
        {
          "internalType": "uint256",
          "name": "_tokenId",
          "type": "uint256"
        },
        {
          "internalType": "bytes",
          "name": "_data",
          "type": "bytes"
        }
      ],
      "name": "safeTransferFrom",
      "outputs": [],
      "stateMutability": "nonpayable",
      "type": "function"
    },
    {
      "inputs": [
        {
          "internalType": "address",
          "name": "_from",
          "type": "address"
        },
        {
          "internalType": "address",
          "name": "_to",
          "type": "address"
        },
        {
          "internalType": "uint256",
          "name": "_tokenId",
          "type": "uint256"
        }
      ],
      "name": "transferFrom",
      "outputs": [],
      "stateMutability": "nonpayable",
      "type": "function"
    },
    {
      "inputs": [
        {
          "internalType": "address",
          "name": "_approved",
          "type": "address"
        },
        {
          "internalType": "uint256",
          "name": "_tokenId",
          "type": "uint256"
        }
      ],
      "name": "approve",
      "outputs": [],
      "stateMutability": "nonpayable",
      "type": "function"
    },
    {
      "inputs": [
        {
          "internalType": "address",
          "name": "_operator",
          "type": "address"
        },
        {
          "internalType": "bool",
          "name": "_approved",
          "type": "bool"
        }
      ],
      "name": "setApprovalForAll",
      "outputs": [],
      "stateMutability": "nonpayable",
      "type": "function"
    },
    {
      "inputs": [
        {
          "internalType": "address",
          "name": "_owner",
          "type": "address"
        }
      ],
      "name": "balanceOf",
      "outputs": [
        {
          "internalType": "uint256",
          "name": "",
          "type": "uint256"
        }
      ],
      "stateMutability": "view",
      "type": "function",
      "constant": true
    },
    {
      "inputs": [
        {
          "internalType": "uint256",
          "name": "_tokenId",
          "type": "uint256"
        }
      ],
      "name": "ownerOf",
      "outputs": [
        {
          "internalType": "address",
          "name": "_owner",
          "type": "address"
        }
      ],
      "stateMutability": "view",
      "type": "function",
      "constant": true
    },
    {
      "inputs": [
        {
          "internalType": "uint256",
          "name": "_tokenId",
          "type": "uint256"
        }
      ],
      "name": "getApproved",
      "outputs": [
        {
          "internalType": "address",
          "name": "",
          "type": "address"
        }
      ],
      "stateMutability": "view",
      "type": "function",
      "constant": true
    },
    {
      "inputs": [
        {
          "internalType": "address",
          "name": "_owner",
          "type": "address"
        },
        {
          "internalType": "address",
          "name": "_operator",
          "type": "address"
        }
      ],
      "name": "isApprovedForAll",
      "outputs": [
        {
          "internalType": "bool",
          "name": "",
          "type": "bool"
        }
      ],
      "stateMutability": "view",
      "type": "function",
      "constant": true
    }
  ],
  "bytecode": "0x60806040526040518060400160405280600881526020017f4d79455243373231000000000000000000000000000000000000000000000000815250600090805190602001906200005192919062000110565b506040518060400160405280600381526020017f4d45540000000000000000000000000000000000000000000000000000000000815250600190805190602001906200009f92919062000110565b50348015620000ad57600080fd5b5033600260006101000a81548173ffffffffffffffffffffffffffffffffffffffff021916908373ffffffffffffffffffffffffffffffffffffffff1602179055506000600260146101000a81548160ff02191690831515021790555062000225565b8280546200011e90620001ef565b90600052602060002090601f0160209004810192826200014257600085556200018e565b82601f106200015d57805160ff19168380011785556200018e565b828001600101855582156200018e579182015b828111156200018d57825182559160200191906001019062000170565b5b5090506200019d9190620001a1565b5090565b5b80821115620001bc576000816000905550600101620001a2565b5090565b7f4e487b7100000000000000000000000000000000000000000000000000000000600052602260045260246000fd5b600060028204905060018216806200020857607f821691505b602082108114156200021f576200021e620001c0565b5b50919050565b611f2480620002356000396000f3fe608060405234801561001057600080fd5b506004361061009e5760003560e01c80636352211e116100665780636352211e1461014557806370a0823114610175578063a22cb465146101a5578063b88d4fde146101c1578063e985e9c5146101dd5761009e565b8063081812fc146100a3578063095ea7b3146100d357806323b872dd146100ef57806342842e0e1461010b5780635c975abb14610127575b600080fd5b6100bd60048036038101906100b891906115c6565b61020d565b6040516100ca9190611634565b60405180910390f35b6100ed60048036038101906100e8919061167b565b6102ef565b005b610109600480360381019061010491906116bb565b610627565b005b610125600480360381019061012091906116bb565b610995565b005b61012f6109b5565b60405161013c9190611729565b60405180910390f35b61015f600480360381019061015a91906115c6565b6109c8565b60405161016c9190611634565b60405180910390f35b61018f600480360381019061018a9190611744565b610a75565b60405161019c9190611780565b60405180910390f35b6101bf60048036038101906101ba91906117c7565b610af6565b005b6101db60048036038101906101d6919061186c565b610bf3565b005b6101f760048036038101906101f291906118f4565b610c4a565b6040516102049190611729565b60405180910390f35b600081600073ffffffffffffffffffffffffffffffffffffffff166003600083815260200190815260200160002060009054906101000a900473ffffffffffffffffffffffffffffffffffffffff1673ffffffffffffffffffffffffffffffffffffffff1614156102b3576040517f08c379a00000000000000000000000000000000000000000000000000000000081526004016102aa90611991565b60405180910390fd5b6004600084815260200190815260200160002060009054906101000a900473ffffffffffffffffffffffffffffffffffffffff16915050919050565b8060006003600083815260200190815260200160002060009054906101000a900473ffffffffffffffffffffffffffffffffffffffff1690503373ffffffffffffffffffffffffffffffffffffffff168173ffffffffffffffffffffffffffffffffffffffff1614806103e85750600660008273ffffffffffffffffffffffffffffffffffffffff1673ffffffffffffffffffffffffffffffffffffffff16815260200190815260200160002060003373ffffffffffffffffffffffffffffffffffffffff1673ffffffffffffffffffffffffffffffffffffffff16815260200190815260200160002060009054906101000a900460ff165b610427576040517f08c379a000000000000000000000000000000000000000000000000000000000815260040161041e906119fd565b60405180910390fd5b82600073ffffffffffffffffffffffffffffffffffffffff166003600083815260200190815260200160002060009054906101000a900473ffffffffffffffffffffffffffffffffffffffff1673ffffffffffffffffffffffffffffffffffffffff1614156104cb576040517f08c379a00000000000000000000000000000000000000000000000000000000081526004016104c290611991565b60405180910390fd5b60006003600086815260200190815260200160002060009054906101000a900473ffffffffffffffffffffffffffffffffffffffff1690508073ffffffffffffffffffffffffffffffffffffffff168673ffffffffffffffffffffffffffffffffffffffff161415610572576040517f08c379a000000000000000000000000000000000000000000000000000000000815260040161056990611a69565b60405180910390fd5b856004600087815260200190815260200160002060006101000a81548173ffffffffffffffffffffffffffffffffffffffff021916908373ffffffffffffffffffffffffffffffffffffffff160217905550848673ffffffffffffffffffffffffffffffffffffffff168273ffffffffffffffffffffffffffffffffffffffff167f8c5be1e5ebec7d5bd14f71427d1e84f3dd0314c0f7b2291e5b200ac8c7c3b92560405160405180910390a4505050505050565b8060006003600083815260200190815260200160002060009054906101000a900473ffffffffffffffffffffffffffffffffffffffff1690503373ffffffffffffffffffffffffffffffffffffffff168173ffffffffffffffffffffffffffffffffffffffff1614806106f857503373ffffffffffffffffffffffffffffffffffffffff166004600084815260200190815260200160002060009054906101000a900473ffffffffffffffffffffffffffffffffffffffff1673ffffffffffffffffffffffffffffffffffffffff16145b806107895750600660008273ffffffffffffffffffffffffffffffffffffffff1673ffffffffffffffffffffffffffffffffffffffff16815260200190815260200160002060003373ffffffffffffffffffffffffffffffffffffffff1673ffffffffffffffffffffffffffffffffffffffff16815260200190815260200160002060009054906101000a900460ff165b6107c8576040517f08c379a00000000000000000000000000000000000000000000000000000000081526004016107bf90611afb565b60405180910390fd5b82600073ffffffffffffffffffffffffffffffffffffffff166003600083815260200190815260200160002060009054906101000a900473ffffffffffffffffffffffffffffffffffffffff1673ffffffffffffffffffffffffffffffffffffffff16141561086c576040517f08c379a000000000000000000000000000000000000000000000000000000000815260040161086390611991565b60405180910390fd5b60006003600086815260200190815260200160002060009054906101000a900473ffffffffffffffffffffffffffffffffffffffff1690508673ffffffffffffffffffffffffffffffffffffffff168173ffffffffffffffffffffffffffffffffffffffff1614610912576040517f08c379a000000000000000000000000000000000000000000000000000000000815260040161090990611b67565b60405180910390fd5b600073ffffffffffffffffffffffffffffffffffffffff168673ffffffffffffffffffffffffffffffffffffffff161415610982576040517f08c379a000000000000000000000000000000000000000000000000000000000815260040161097990611bd3565b60405180910390fd5b61098c8686610cde565b50505050505050565b6109b083838360405180602001604052806000815250610d93565b505050565b600260149054906101000a900460ff1681565b60006003600083815260200190815260200160002060009054906101000a900473ffffffffffffffffffffffffffffffffffffffff169050600073ffffffffffffffffffffffffffffffffffffffff168173ffffffffffffffffffffffffffffffffffffffff161415610a70576040517f08c379a0000000000000000000000000000000000000000000000000000000008152600401610a6790611991565b60405180910390fd5b919050565b60008073ffffffffffffffffffffffffffffffffffffffff168273ffffffffffffffffffffffffffffffffffffffff161415610ae6576040517f08c379a0000000000000000000000000000000000000000000000000000000008152600401610add90611bd3565b60405180910390fd5b610aef82611238565b9050919050565b80600660003373ffffffffffffffffffffffffffffffffffffffff1673ffffffffffffffffffffffffffffffffffffffff16815260200190815260200160002060008473ffffffffffffffffffffffffffffffffffffffff1673ffffffffffffffffffffffffffffffffffffffff16815260200190815260200160002060006101000a81548160ff0219169083151502179055508173ffffffffffffffffffffffffffffffffffffffff163373ffffffffffffffffffffffffffffffffffffffff167f17307eab39ab6107e8899845ad3d59bd9653f200f220920489ca2b5937696c3183604051610be79190611729565b60405180910390a35050565b610c4385858585858080601f016020809104026020016040519081016040528093929190818152602001838380828437600081840152601f19601f82011690508083019250505050505050610d93565b5050505050565b6000600660008473ffffffffffffffffffffffffffffffffffffffff1673ffffffffffffffffffffffffffffffffffffffff16815260200190815260200160002060008373ffffffffffffffffffffffffffffffffffffffff1673ffffffffffffffffffffffffffffffffffffffff16815260200190815260200160002060009054906101000a900460ff16905092915050565b60006003600083815260200190815260200160002060009054906101000a900473ffffffffffffffffffffffffffffffffffffffff169050610d1f82611281565b610d2981836112ba565b610d3383836113ec565b818373ffffffffffffffffffffffffffffffffffffffff168273ffffffffffffffffffffffffffffffffffffffff167fddf252ad1be2c89b69c2b068fc378daa952ba7f163c4a11628f55a4df523b3ef60405160405180910390a4505050565b8160006003600083815260200190815260200160002060009054906101000a900473ffffffffffffffffffffffffffffffffffffffff1690503373ffffffffffffffffffffffffffffffffffffffff168173ffffffffffffffffffffffffffffffffffffffff161480610e6457503373ffffffffffffffffffffffffffffffffffffffff166004600084815260200190815260200160002060009054906101000a900473ffffffffffffffffffffffffffffffffffffffff1673ffffffffffffffffffffffffffffffffffffffff16145b80610ef55750600660008273ffffffffffffffffffffffffffffffffffffffff1673ffffffffffffffffffffffffffffffffffffffff16815260200190815260200160002060003373ffffffffffffffffffffffffffffffffffffffff1673ffffffffffffffffffffffffffffffffffffffff16815260200190815260200160002060009054906101000a900460ff165b610f34576040517f08c379a0000000000000000000000000000000000000000000000000000000008152600401610f2b90611afb565b60405180910390fd5b83600073ffffffffffffffffffffffffffffffffffffffff166003600083815260200190815260200160002060009054906101000a900473ffffffffffffffffffffffffffffffffffffffff1673ffffffffffffffffffffffffffffffffffffffff161415610fd8576040517f08c379a0000000000000000000000000000000000000000000000000000000008152600401610fcf90611991565b60405180910390fd5b60006003600087815260200190815260200160002060009054906101000a900473ffffffffffffffffffffffffffffffffffffffff1690508773ffffffffffffffffffffffffffffffffffffffff168173ffffffffffffffffffffffffffffffffffffffff161461107e576040517f08c379a000000000000000000000000000000000000000000000000000000000815260040161107590611b67565b60405180910390fd5b600073ffffffffffffffffffffffffffffffffffffffff168773ffffffffffffffffffffffffffffffffffffffff1614156110ee576040517f08c379a00000000000000000000000000000000000000000000000000000000081526004016110e590611bd3565b60405180910390fd5b6110f88787610cde565b6111018761153b565b1561122e5760008773ffffffffffffffffffffffffffffffffffffffff1663150b7a02338b8a8a6040518563ffffffff1660e01b81526004016111479493929190611c8c565b6020604051808303816000875af1158015611166573d6000803e3d6000fd5b505050506040513d601f19601f8201168201806040525081019061118a9190611d30565b90507f150b7a023d4804d13e8c85fb27262cb750cf6ba9f9dd3bb30d90f482ceeb4b1f7bffffffffffffffffffffffffffffffffffffffffffffffffffffffff1916817bffffffffffffffffffffffffffffffffffffffffffffffffffffffff19161461122c576040517f08c379a000000000000000000000000000000000000000000000000000000000815260040161122390611da9565b60405180910390fd5b505b5050505050505050565b6000600560008373ffffffffffffffffffffffffffffffffffffffff1673ffffffffffffffffffffffffffffffffffffffff168152602001908152602001600020549050919050565b6004600082815260200190815260200160002060006101000a81549073ffffffffffffffffffffffffffffffffffffffff021916905550565b8173ffffffffffffffffffffffffffffffffffffffff166003600083815260200190815260200160002060009054906101000a900473ffffffffffffffffffffffffffffffffffffffff1673ffffffffffffffffffffffffffffffffffffffff161461135b576040517f08c379a000000000000000000000000000000000000000000000000000000000815260040161135290611b67565b60405180910390fd5b6001600560008473ffffffffffffffffffffffffffffffffffffffff1673ffffffffffffffffffffffffffffffffffffffff16815260200190815260200160002060008282546113ab9190611df8565b925050819055506003600082815260200190815260200160002060006101000a81549073ffffffffffffffffffffffffffffffffffffffff02191690555050565b600073ffffffffffffffffffffffffffffffffffffffff166003600083815260200190815260200160002060009054906101000a900473ffffffffffffffffffffffffffffffffffffffff1673ffffffffffffffffffffffffffffffffffffffff161461148e576040517f08c379a000000000000000000000000000000000000000000000000000000000815260040161148590611e78565b60405180910390fd5b816003600083815260200190815260200160002060006101000a81548173ffffffffffffffffffffffffffffffffffffffff021916908373ffffffffffffffffffffffffffffffffffffffff1602179055506001600560008473ffffffffffffffffffffffffffffffffffffffff1673ffffffffffffffffffffffffffffffffffffffff16815260200190815260200160002060008282546115309190611e98565b925050819055505050565b60008060007fc5d2460186f7233c927e7db2dcc703c0e500b653ca82273b7bfad8045d85a47060001b9050833f91506000801b821415801561157d5750808214155b92505050919050565b600080fd5b600080fd5b6000819050919050565b6115a381611590565b81146115ae57600080fd5b50565b6000813590506115c08161159a565b92915050565b6000602082840312156115dc576115db611586565b5b60006115ea848285016115b1565b91505092915050565b600073ffffffffffffffffffffffffffffffffffffffff82169050919050565b600061161e826115f3565b9050919050565b61162e81611613565b82525050565b60006020820190506116496000830184611625565b92915050565b61165881611613565b811461166357600080fd5b50565b6000813590506116758161164f565b92915050565b6000806040838503121561169257611691611586565b5b60006116a085828601611666565b92505060206116b1858286016115b1565b9150509250929050565b6000806000606084860312156116d4576116d3611586565b5b60006116e286828701611666565b93505060206116f386828701611666565b9250506040611704868287016115b1565b9150509250925092565b60008115159050919050565b6117238161170e565b82525050565b600060208201905061173e600083018461171a565b92915050565b60006020828403121561175a57611759611586565b5b600061176884828501611666565b91505092915050565b61177a81611590565b82525050565b60006020820190506117956000830184611771565b92915050565b6117a48161170e565b81146117af57600080fd5b50565b6000813590506117c18161179b565b92915050565b600080604083850312156117de576117dd611586565b5b60006117ec85828601611666565b92505060206117fd858286016117b2565b9150509250929050565b600080fd5b600080fd5b600080fd5b60008083601f84011261182c5761182b611807565b5b8235905067ffffffffffffffff8111156118495761184861180c565b5b60208301915083600182028301111561186557611864611811565b5b9250929050565b60008060008060006080868803121561188857611887611586565b5b600061189688828901611666565b95505060206118a788828901611666565b94505060406118b8888289016115b1565b935050606086013567ffffffffffffffff8111156118d9576118d861158b565b5b6118e588828901611816565b92509250509295509295909350565b6000806040838503121561190b5761190a611586565b5b600061191985828601611666565b925050602061192a85828601611666565b9150509250929050565b600082825260208201905092915050565b7f4e6f742076616c6964204e4654546f6b656e0000000000000000000000000000600082015250565b600061197b601283611934565b915061198682611945565b602082019050919050565b600060208201905081810360008301526119aa8161196e565b9050919050565b7f4e6f74206120746f6b656e206f72206f70657261746f72000000000000000000600082015250565b60006119e7601783611934565b91506119f2826119b1565b602082019050919050565b60006020820190508181036000830152611a16816119da565b9050919050565b7f4973204f776e6572000000000000000000000000000000000000000000000000600082015250565b6000611a53600883611934565b9150611a5e82611a1d565b602082019050919050565b60006020820190508181036000830152611a8281611a46565b9050919050565b7f4e6f74206f776e657220617070726f766564206f7220616e206f70657261746f60008201527f7200000000000000000000000000000000000000000000000000000000000000602082015250565b6000611ae5602183611934565b9150611af082611a89565b604082019050919050565b60006020820190508181036000830152611b1481611ad8565b9050919050565b7f4e6f7420616e204f776e65720000000000000000000000000000000000000000600082015250565b6000611b51600c83611934565b9150611b5c82611b1b565b602082019050919050565b60006020820190508181036000830152611b8081611b44565b9050919050565b7f41646472657373206973207a65726f0000000000000000000000000000000000600082015250565b6000611bbd600f83611934565b9150611bc882611b87565b602082019050919050565b60006020820190508181036000830152611bec81611bb0565b9050919050565b600081519050919050565b600082825260208201905092915050565b60005b83811015611c2d578082015181840152602081019050611c12565b83811115611c3c576000848401525b50505050565b6000601f19601f8301169050919050565b6000611c5e82611bf3565b611c688185611bfe565b9350611c78818560208601611c0f565b611c8181611c42565b840191505092915050565b6000608082019050611ca16000830187611625565b611cae6020830186611625565b611cbb6040830185611771565b8181036060830152611ccd8184611c53565b905095945050505050565b60007fffffffff0000000000000000000000000000000000000000000000000000000082169050919050565b611d0d81611cd8565b8114611d1857600080fd5b50565b600081519050611d2a81611d04565b92915050565b600060208284031215611d4657611d45611586565b5b6000611d5484828501611d1b565b91505092915050565b7f556e61626c6520746f2072656365697665204e46540000000000000000000000600082015250565b6000611d93601583611934565b9150611d9e82611d5d565b602082019050919050565b60006020820190508181036000830152611dc281611d86565b9050919050565b7f4e487b7100000000000000000000000000000000000000000000000000000000600052601160045260246000fd5b6000611e0382611590565b9150611e0e83611590565b925082821015611e2157611e20611dc9565b5b828203905092915050565b7f4e465420746f6b656e20616c7265616479206578697374730000000000000000600082015250565b6000611e62601883611934565b9150611e6d82611e2c565b602082019050919050565b60006020820190508181036000830152611e9181611e55565b9050919050565b6000611ea382611590565b9150611eae83611590565b9250827fffffffffffffffffffffffffffffffffffffffffffffffffffffffffffffffff03821115611ee357611ee2611dc9565b5b82820190509291505056fea2646970667358221220a707a7fefcf63b6ab5ebfcd6a0926c26f4658376fb90c683e20a7e276f62d3e464736f6c634300080a0033",
  "immutableReferences": {},
  "source": "pragma solidity ^0.8.0;\n\nimport \"./IERC721.sol\";\nimport \"./IERC721TokenReceiver.sol\";\n\ncontract MyERC721Token is IERC721 {\n    string private name = \"MyERC721\"; // token name\n    string private symbol = \"MET\"; // token symbol\n    address contractOwner;\n\n    bool public paused; // allow actions only when this is false\n\n    mapping(uint256 => address) internal idToOwner; // token id to owner address\n\n    mapping(uint256 => address) internal idToApproval; // token id to approved address\n\n    mapping(address => uint256) private ownerToNFTokenCount; // owner to total number of tokens owned\n\n    mapping(address => mapping(address => bool)) internal ownerToOperators; // owner to operator approvals\n\n    constructor() {\n        contractOwner = msg.sender;\n        paused = false;\n    }\n\n    function safeTransferFrom(\n        address _from,\n        address _to,\n        uint256 _tokenId,\n        bytes calldata _data\n    ) external override {\n        _safeTransferFrom(_from, _to, _tokenId, _data);\n    }\n\n    function safeTransferFrom(\n        address _from,\n        address _to,\n        uint256 _tokenId\n    ) external override {\n        _safeTransferFrom(_from, _to, _tokenId, \"\");\n    }\n\n    function transferFrom(\n        address _from,\n        address _to,\n        uint256 _tokenId\n    ) external override canTransfer(_tokenId) validNFToken(_tokenId) {\n        address tokenOwner = idToOwner[_tokenId];\n        require(tokenOwner == _from, \"Not an Owner\");\n        require(_to != address(0), \"Address is zero\");\n\n        _transfer(_to, _tokenId);\n    }\n\n    function approve(address _approved, uint256 _tokenId)\n        external\n        override\n        canOperate(_tokenId)\n        validNFToken(_tokenId)\n    {\n        address tokenOwner = idToOwner[_tokenId];\n        require(_approved != tokenOwner, \"Is Owner\");\n\n        idToApproval[_tokenId] = _approved;\n        emit Approval(tokenOwner, _approved, _tokenId);\n    }\n\n    function setApprovalForAll(address _operator, bool _approved)\n        external\n        override\n    {\n        ownerToOperators[msg.sender][_operator] = _approved;\n        emit ApprovalForAll(msg.sender, _operator, _approved);\n    }\n\n    function balanceOf(address _owner)\n        external\n        view\n        override\n        returns (uint256)\n    {\n        require(_owner != address(0), \"Address is zero\");\n        return _getOwnerNFTCount(_owner);\n    }\n\n    function ownerOf(uint256 _tokenId)\n        external\n        view\n        override\n        returns (address _owner)\n    {\n        _owner = idToOwner[_tokenId];\n        require(_owner != address(0), \"Not valid NFTToken\");\n    }\n\n    function getApproved(uint256 _tokenId)\n        external\n        view\n        override\n        validNFToken(_tokenId)\n        returns (address)\n    {\n        return idToApproval[_tokenId];\n    }\n\n    function isApprovedForAll(address _owner, address _operator)\n        external\n        view\n        override\n        returns (bool)\n    {\n        return ownerToOperators[_owner][_operator];\n    }\n\n    function _transfer(address _to, uint256 _tokenId) internal virtual {\n        address from = idToOwner[_tokenId];\n        _clearApproval(_tokenId);\n\n        _removeNFToken(from, _tokenId);\n        _addNFToken(_to, _tokenId);\n\n        emit Transfer(from, _to, _tokenId);\n    }\n\n    function _mint(address _to, uint256 _tokenId) internal virtual {\n        require(_to != address(0), \"Address is zero\");\n        require(idToOwner[_tokenId] == address(0), \"NFT token already exists\");\n\n        _addNFToken(_to, _tokenId);\n\n        emit Transfer(address(0), _to, _tokenId);\n    }\n\n    function _burn(uint256 _tokenId) internal virtual validNFToken(_tokenId) {\n        address tokenOwner = idToOwner[_tokenId];\n        _clearApproval(_tokenId);\n        _removeNFToken(tokenOwner, _tokenId);\n        emit Transfer(tokenOwner, address(0), _tokenId);\n    }\n\n    function _removeNFToken(address _from, uint256 _tokenId) internal virtual {\n        require(idToOwner[_tokenId] == _from, \"Not an Owner\");\n        ownerToNFTokenCount[_from] -= 1;\n        delete idToOwner[_tokenId];\n    }\n\n    function _addNFToken(address _to, uint256 _tokenId) internal virtual {\n        require(idToOwner[_tokenId] == address(0), \"NFT token already exists\");\n\n        idToOwner[_tokenId] = _to;\n        ownerToNFTokenCount[_to] += 1;\n    }\n\n    function _getOwnerNFTCount(address _owner)\n        internal\n        view\n        virtual\n        returns (uint256)\n    {\n        return ownerToNFTokenCount[_owner];\n    }\n\n    function _safeTransferFrom(\n        address _from,\n        address _to,\n        uint256 _tokenId,\n        bytes memory _data\n    ) private canTransfer(_tokenId) validNFToken(_tokenId) {\n        address tokenOwner = idToOwner[_tokenId];\n        require(tokenOwner == _from, \"Not an Owner\");\n        require(_to != address(0), \"Address is zero\");\n\n        _transfer(_to, _tokenId);\n\n        if (isContract(_to)) {\n            bytes4 retval = IERC721TokenReceiver(_to).onERC721Received(\n                msg.sender,\n                _from,\n                _tokenId,\n                _data\n            );\n            require(\n                retval ==\n                    bytes4(\n                        keccak256(\n                            \"onERC721Received(address,address,uint256,bytes)\"\n                        )\n                    ),\n                \"Unable to receive NFT\"\n            );\n        }\n    }\n\n    function _clearApproval(uint256 _tokenId) private {\n        delete idToApproval[_tokenId];\n    }\n\n    function pause() private whenNotPaused returns (bool) {\n        require(msg.sender == contractOwner, \"Not an owner\");\n        paused = true;\n        return true;\n    }\n\n    function unpause() private whenPaused returns (bool) {\n        require(msg.sender == contractOwner, \"Not an owner\");\n        paused = false;\n        return true;\n    }\n\n    function isContract(address _addr)\n        internal\n        view\n        returns (bool addressCheck)\n    {\n        bytes32 codehash;\n        bytes32 accountHash = 0xc5d2460186f7233c927e7db2dcc703c0e500b653ca82273b7bfad8045d85a470;\n        assembly {\n            codehash := extcodehash(_addr)\n        } // solhint-disable-line\n        addressCheck = (codehash != 0x0 && codehash != accountHash);\n    }\n\n    modifier canOperate(uint256 _tokenId) {\n        address tokenOwner = idToOwner[_tokenId];\n        require(\n            tokenOwner == msg.sender ||\n                ownerToOperators[tokenOwner][msg.sender],\n            \"Not a token or operator\"\n        );\n        _;\n    }\n\n    modifier canTransfer(uint256 _tokenId) {\n        address tokenOwner = idToOwner[_tokenId];\n        require(\n            tokenOwner == msg.sender ||\n                idToApproval[_tokenId] == msg.sender ||\n                ownerToOperators[tokenOwner][msg.sender],\n            \"Not owner approved or an operator\"\n        );\n        _;\n    }\n\n    modifier validNFToken(uint256 _tokenId) {\n        require(idToOwner[_tokenId] != address(0), \"Not valid NFTToken\");\n        _;\n    }\n\n    modifier whenNotPaused() {\n        require(!paused);\n        _;\n    }\n    modifier whenPaused() {\n        require(paused);\n        _;\n    }\n}\n",
  "sourcePath": "/Users/hikumar/Personal Workspace/Blockchain/PolygonScreening/contracts/MyERC721Token.sol",
  "compiler": {
    "name": "solc",
    "version": "0.8.10+commit.fc410830.Emscripten.clang"
  },
  "schemaVersion": "3.4.3",
  "updatedAt": "2022-05-22T14:50:04.938Z",
  "networkType": "ethereum",
  "devdoc": {
    "kind": "dev",
    "methods": {},
    "version": 1
  },
  "userdoc": {
    "kind": "user",
    "methods": {},
    "version": 1
  }
}